:10000000002000101D010000950100009501000076
:1000100000000000000000000000000000000000E0
:10002000000000000000000000000000950100003A
:1000300000000000000000009501000071040000B5
:100040009501000095010000950100009501000058
:100050009501000095010000950100009501000048
:100060009501000095010000950100009501000038
:100070009501000095010000950100005507000062
:100080009501000095010000950100009501000018
:100090009501000095010000950100009501000008
:1000A00095010000950100009501000095010000F8
:1000B00095010000950100009501000095010000E8
:1000C00080B500AF00F02AF8C046BD4680BDC046EE
:1000D00080B500AF0B4B00221A600B4B23221A6035
:1000E0000A4B0A4A126880218A431A60084B01228F
:1000F0001A60084B03221A60074B01221A60C0469F
:10010000BD4680BD408004400880044038820440E1
:1001100044800440708004407480044080B584B002
:1001200000AF174BFB60174BBB60174A154BD31A38
:100130007B6007E0BB685A1CBA60FA68511CF96022
:1001400012781A707B685A1E7A60002BF2D10F4B1E
:10015000BB600F4A0D4BD31A7B6004E0BB685A1C8E
:10016000BA6000221A707B685A1E7A60002BF5D1A3
:10017000FFF7AEFF01F0A2FBC046BD4604B080BD54
:10018000942F0000000000107C0000107C00001084
:100190001802001080B500AFFEE7C04680B500AF82
:1001A000084B084A126808490A431A60074B0022A4
:1001B0001A60074B80221A60064B00221A60C04664
:1001C000BD4680BD80800440400001005040044096
:1001D00000800050FC3F005080B500AF024B8022F1
:1001E0001A60C046BD4680BDFC3F005080B500AFE0
:1001F000024B00221A60C046BD4680BDFC3F005045
:1002000080B500AF144B144A1268802149020A439A
:100210001A60124B01221A60114B31221A600E4BE8
:100220000D4A1268802149010A431A600D4B0122D0
:100230001A600D4B83221A600C4B4E221A600C4B35
:1002400000221A60084B03221A600A4B01221A602E
:10025000C046BD4680BDC04680800440A8400440E2
:10026000A4400440988004400C800040008000407E
:10027000048000400880004080B500AF024B1B683E
:10028000DBB21800BD4680BD0080004080B500AFE5
:10029000034B1B681A00012313401800BD4680BDA4
:1002A0001480004080B582B000AF0200FB1D1A70C0
:1002B000FB1D1B780A2B08D1C046124B1B6820225D
:1002C0001340FAD0104B0D221A60C0460D4B1B682C
:1002D00020221340FAD00C4BFA1D12781A60FB1D35
:1002E0001B780D2B08D1C046064B1B6820221340FB
:1002F000FAD0054B0A221A60FB1D1B781800BD4678
:1003000002B080BD148000400080004080B500AF86
:10031000C046FFF7BBFF031EFBD0034B1B68DBB2DD
:100320001800BD4680BDC0460080004080B584B046
:1003300000AF78600F23FB187A6812781A700DE00E
:100340000F23FB181B781800FFF7ACFF7B68013305
:100350007B600F23FB187A6812781A700F23FB1842
:100360001B78002BECD1C046BD4604B080BDC04612
:1003700080B586B000AF7860F0237B6104233B61D9
:100380007B687A691A403B69DA400E23FB181A80B1
:100390000E23FB180E22BA18128830321A800E2350
:1003A000FB181B88392B06D90E23FB180E22BA180E
:1003B000128807321A800E23FB181B88DBB2180044
:1003C000FFF770FF3B69043B3B617B691B097B6165
:1003D0007B69002BD4D1C046BD4606B080BDC04667
:1003E00090B58FB000AF78600823FB181F4A13CA7E
:1003F00013C313CA13C313CA13C312681A600023AA
:100400007B6302E07B6B01337B630823FB187A6B11
:100410009200D2587B689A42F4D820E000233B63D4
:100420000AE00823FB187A6B9200D3587A68D31A33
:100430007B603B6B01333B630823FB187A6B9200B4
:10044000D2587B689A42ECD93B6B30333B633B6BB1
:10045000DBB21800FFF726FF7B6B01337B637B6BFE
:10046000092BDBDDC046BD460FB090BD4027000024
:1004700080B500AF034B1B685A1C024B1A60C04684
:10048000BD4680BD7C00001080B582B000AF7860B2
:10049000084B00221A60084B7A68013A1A60074B31
:1004A00000221A60034B07221A60C046BD4602B004
:1004B00080BDC04610E000E014E000E018E000E07D
:1004C00080B584B000AF7860074B1A687B68D3189A
:1004D000FB6000E030BF044B1B68FA689A42F9DC0D
:1004E000C046BD4604B080BD7C00001080B500AFA2
:1004F000022000F003F8C046BD4680BD90B587B02D
:1005000000AF0200FB1D1A70674B674A126867490B
:100510000A401A60644BFA1D127852B2120201218D
:100520000A431A60624B624A126860490A401A60C4
:100530005F4BFA1D127852B2120201210A431A606F
:100540005C4B5C4A126820210A431A605A4B5A4A93
:10055000126802210A431A601723FB180F221A702F
:100560001723FB181B787F2B0AD8544B1722BA1875
:10057000127811001F220A40012191400A001A60DE
:100580001623FB180F221A7000233B611623FB1859
:100590001B787F2B2ED84A4BFB601623FB181B7849
:1005A0005BB29B089B00FA68D3181622BA1812781F
:1005B00052B292089200F9688A18126816217918C6
:1005C0000978080003210140C900FF20884001008C
:1005D000C94311403A699201FF2010401622BA180F
:1005E0001278140003222240D200904002000A43F5
:1005F0001A6033E0334BBB601623FB181B781A00DC
:100600000F231340083B9B089B00BA68D31816229F
:10061000BA18127811000F220A40083A9208920084
:10062000B9688A1812681621791809780800032118
:100630000140C900FF2088400100C94311403A69C8
:100640009201FF2010401622BA18127814000322DB
:100650002240D200904002000A431A601523FB1882
:100660000F221A701523FB181B787F2B0AD8164B04
:100670001522BA18127811001F220A400121914058
:100680000A001A608023DB0540221A600F4B2C22DF
:100690001A600F4B16221A600E4B16221A60C046C3
:1006A000BD4607B090BDC04630400440FCFCFFFF93
:1006B00034400440808004400480044080E200E034
:1006C00000E400E01CED00E000E100E01800004064
:1006D000100000401400004080B582B000AF786088
:1006E000074B7A681A60064B1B6800221A74802335
:1006F000DB0520221A60C046BD4602B080BDC04660
:100700008000001080B582B000AF8023DB0514228A
:100710001A600E4B08221A60FB1D0F221A70FB1D77
:100720001B787F2B0DD80A4BFA1D127811001F225F
:100730000A40012191400A001A60BFF34F8FBFF3B6
:100740006F8FC046BD4602B080BDC0461800004055
:1007500080E100E080B582B000AF00237B60AD4B4C
:100760001B68F82213407B607B68582B00D94DE151
:100770007B689A00A84BD3181B689F468023DB0533
:1007800014221A60A54B08221A60A54B1B68FF2291
:100790001A743AE1A34AA24B1B681B785900A04B7C
:1007A0001B685B781800012303400B431360802310
:1007B000DB0504221A60994B28221A60984B1A68AC
:1007C000974B1B685B889380954B1B68944A126813
:1007D0009268DA6019E1934A914B1B681B785900C3
:1007E0008F4B1B685B781800012303400B43136099
:1007F0008023DB0504221A60884B28221A60884B6C
:100800001B68874A12685269DA60854B1A68844B04
:100810001B681B8B9380F8E0814B1B68DB7E002BF1
:1008200008D08023DB0514221A607D4B1B6801224F
:100830001A740EE07B4A7A4B1B68DB681B781360E6
:100840008023DB0504221A60754B1B68DA680132CD
:10085000DA60724B08221A60D7E0714B1B68DB7EAE
:10086000002B04D08023DB0524221A6007E08023BC
:10087000DB0514221A606A4B1B68FF221A74674B4F
:1008800008221A60C1E0664B1B689A88013A92B24E
:100890009A80634B1B689B88002B3CD1604B1B6884
:1008A0001B7F002B08D05E4B1B6801225A708023EF
:1008B000DB0524221A603DE0594B1B689B7E5BB22E
:1008C000002B1FD0564B1B68554A12685269DA60DC
:1008D000534B1A68524B1B681B8B9380504B1B6801
:1008E00000229A764F4A4E4B1B68DB681B781360D8
:1008F0008023DB0504221A60494B1B68DA68013249
:10090000DA6017E08023DB0514221A60444B1B6871
:1009100001221A740EE0434A414B1B68DB681B78C6
:1009200013608023DB0504221A603D4B1B68DA68E4
:100930000132DA60394B08221A6066E08023DB0559
:1009400014221A60354B08221A60354B1B68FF22AF
:100950001A745AE08023DB0524221A602F4B0822E8
:100960001A6052E02E4B1B689B88012B03D12B4B46
:100970000C221A6049E08023DB0504221A60274B11
:1009800008221A6041E08023DB0514221A60234B01
:1009900008221A60224B1B68FF221A7435E0204B94
:1009A0001B68DA681F4B1B68DBB213701C4B1B689B
:1009B0009A88013A92B29A80194B1B689B88012B46
:1009C00003D1164B0C221A6006E08023DB050422BB
:1009D0001A60124B08221A60114B1B68DA68013248
:1009E000DA6012E00E4B1B68DA680E4B1B68DBB254
:1009F00013708023DB0514221A60084B08221A604A
:100A0000074B1B6801221A74C046C046C046BD464B
:100A100002B080BD040000406827000018000040BC
:100A2000800000100800004080B584B000AF0200D4
:100A30003960FB1D1A700C23FB1800221A700C235E
:100A4000F918FB1D1B780122180000F009F80C238F
:100A5000FB181A783B681A70C046BD4604B080BDCA
:100A600080B584B000AFB9607A600F23FB18021C18
:100A70001A70134B0F22BA1812781A70104B0122F9
:100A80005A707B689AB20E4B5A800D4BBA689A60C6
:100A90000B4B00229A760A4B0022DA76084B002292
:100AA0001A77074B1800FFF717FE00E0C046044B0B
:100AB0001B7C5BB2002BF9D0C046BD4604B080BDA4
:100AC0008400001080B586B004AF02003960FB1DC1
:100AD0001A703968FB1D18780023029300230193D4
:100AE000002300930023002200F082F8C046BD4698
:100AF00002B080BD90B589B004AFB9607A603B6048
:100B00000F23FB18021C1A703B68DBB27C68B968C3
:100B10000F22BA181078012202920022019200934B
:100B20002300002200F064F8C046BD4605B090BD29
:100B300080B584B000AF39601100FB1D021C1A7033
:100B4000BB1D0A1C1A700C23FB1800221A700C2300
:100B5000FB18BA1D12781A700C23FA183968FB1D9D
:100B60001878012300F004F8C046BD4604B080BDEB
:100B700090B589B004AFB9607A6019000F23FB18F3
:100B8000021C1A700E23FB180A1C1A700E23FB1885
:100B90001B78DAB2402A00D94023DBB27C68B968FE
:100BA0000F22BA18107800220292002201920093BC
:100BB0002300012200F01CF8C046BD4605B090BDE0
:100BC00080B586B004AF0200FB1D1A70FB1D1878BB
:100BD00000230293012301930023009300230022AA
:100BE000002100F005F8C046BD4602B080BDC046F9
:100BF00080B586B000AFB9607A603B600F23FB1808
:100C0000021C1A701423FB1800221A701423FB18FC
:100C100000225A701423FB1800229A70314B0F22C5
:100C2000BA1812781A702F4B00225A702E4B1B687C
:100C30009AB22C4B5A802B4B1422BA189A607B68BC
:100C40005AB2284B9A76274B3A685A612023FB18F0
:100C50001B789AB2234B1A83224B2422BA1812789B
:100C6000DA76204B2822BA1812781A771E4B1B68A6
:100C7000022B09D0032B13D0012B23D1BB68DAB28E
:100C80001423FB181A701DE0BB681B12DAB2142380
:100C9000FB181A70BB68DAB21423FB185A7011E003
:100CA000BB681B14DAB21423FB181A70BB681B1242
:100CB000DAB21423FB185A70BB68DAB21423FB189B
:100CC0009A70C046074B1800FFF706FD00E0C046CB
:100CD000044B1B7C5BB2002BF9D0C046BD4606B06E
:100CE00080BDC046840000100000001080B586B0B2
:100CF00000AF7860396000237B613B68013B3B615A
:100D000018E07B697A68D3181B78FB607B697A6886
:100D1000D3183A6979688A1812781A703B697A6828
:100D2000D318FA68D2B21A707B6901337B613B69D0
:100D3000013B3B617A693B699A42E2DBC046BD46B2
:100D400006B080BD90B587B000AFF860B9607A603A
:100D500000237B6116E07B695A1C7A611A00BB682C
:100D60009C18FB680A21180000F032FF0B00DBB270
:100D70003033DBB22370FB680A21180000F042FE1A
:100D80000300FB60FB68002BE5D107E07B695A1C80
:100D90007A611A00BB689B1830221A707A697B68E6
:100DA0009A42F3DB7A69BB6811001800FFF79EFFD7
:100DB0007B69BA68D31800221A707B691800BD4697
:100DC00007B090BD80B588B000AFF860B9607A60B8
:100DD000F86801F0DBF903007B61786901F0F8F94C
:100DE000031C191CF86801F04BF8031CFB61B9687F
:100DF0007B6900221800FFF7A5FF03003B617B68B9
:100E0000002B1FD03B69BA68D3182E221A7000231A
:100E1000BB6108E00D49F86900F01EFF031CFB618F
:100E2000BB690133BB61BA697B689A42F2DBF8693E
:100E300001F0ACF93B690133BA68D3187A6819003C
:100E4000FFF780FFC046BD4608B080BD00002041CE
:100E500080B582B000AF0200FB1D1A70FB1D1B782D
:100E60001A0000213C20FFF763FEC046BD4602B0D9
:100E700080BDC04680B582B000AF78600A00FB1C20
:100E80001A70FB1C1B787A6800213C20FFF770FE6B
:100E9000C046BD4602B080BD80B582B000AF020042
:100EA000FB1D1A70FB1D1B781A0040213C20FFF728
:100EB0003FFEC046BD4602B080BDC04680B582B090
:100EC00000AF78600A00FB1C1A70FB1C1B787A6864
:100ED00040213C20FFF74CFEC046BD4602B080BD1D
:100EE00080B58CB000AF0823FA181D4B1000190014
:100EF0001E231A0001F06CFB0823FB181E211800AA
:100F0000FFF7B8FF0023FB621FE0FB6ADBB2503B38
:100F1000DAB23B1D1A703B1D00225A703B1D0022A5
:100F20009A703B1D03211800FFF7A4FF0023BB624A
:100F300005E00020FFF7B0FFBB6A0133BB62BB6A6C
:100F40007F2BF6DDFB6A0133FB62FB6A072BDCDDDE
:100F5000AF20FFF77DFFC046BD460CB080BDC04648
:100F6000702E000080B582B000AF00237B6039E0B6
:100F70007B68DBB24E3BDAB23B001A703B000C22BE
:100F80005A703B0011229A703B0003211800FFF7B2
:100F900071FF7A681300DB009B18DB001A00154B09
:100FA000D3181E211800FFF789FF7A681300DB00B1
:100FB0009B18DB001E331A000E4BD3181E2118009D
:100FC000FFF77CFF7A681300DB009B18DB003C33E3
:100FD0001A00084BD3180C211800FFF76FFF7B682D
:100FE00001337B607B68042BC2DDC046BD4602B086
:100FF00080BDC046A400001080B500AFFFF7B2FF6F
:10100000C046BD4680BDC04680B584B002AF020078
:10101000FB1D1A70FB1D1B780B2B6ED89A00394BE9
:10102000D3181B689F4600F089F8374A20230093A5
:101030001E230521142000F0DBFBFFF7DDFF5CE041
:1010400000F07CF8314B180000F00EF93049314BBC
:101050001122180000F01CFAFFF7CEFF4DE02B4BD9
:10106000180000F001F900F069F829492A4B002224
:10107000180000F00DFA2649284B0822180000F04D
:1010800007FA2349264B1822180000F001FAFFF74F
:10109000B3FF32E0234B180000F0E6F800F04EF802
:1010A0001B49214B0022180000F0F2F918491F4B90
:1010B0001422180000F0ECF9FFF79EFF1DE01C4B16
:1010C000180000F0D1F800F039F81A4B0A22142168
:1010D000180000F0DDF90D4B180000F0C5F8164BB4
:1010E00018223221180000F0D3F9FFF785FF04E041
:1010F00000F024F8FFF780FFC046C046BD4602B0AE
:1011000080BDC046D82E000004000010CC2800008E
:101110000E270000902E0000A02E0000AC2E000034
:10112000B42E00000C2B0000C02E0000C82E0000C2
:10113000482C0000D02E0000D42E000080B500AF57
:10114000B4235A00034B0021180001F07FFAC04677
:10115000BD4680BDA400001080B500AFB4235A0086
:10116000034BFF21180001F071FAC046BD4680BD57
:10117000A400001080B584B000AF0200BB1D1A802F
:101180003B1D0A1C1A80BB1D1B88472B28D83B1D02
:101190001B88272B24D83B1D1B88DB089BB21A0019
:1011A0001300DB009B18DB001A00BB1D1B88D31843
:1011B000FB603B1D1B8807221340BB600A4AFB688B
:1011C000D3181B785AB20121BB6899400B005BB25F
:1011D00013435BB2D9B2044AFB68D3180A1C1A70D5
:1011E000C046BD4604B080BDA400001080B584B0E8
:1011F00000AF0200BB1D1A803B1D0A1C1A80BB1DDC
:101200001B88472B2AD83B1D1B88272B26D83B1D24
:101210001B88DB089BB21A001300DB009B18DB0065
:101220001A00BB1D1B88D318FB603B1D1B880722BF
:101230001340BB600B4AFB68D3181B785BB20121DB
:10124000BA6891400A0052B2D24352B213405BB224
:10125000D9B2044AFB68D3180A1C1A70C046BD46AE
:1012600004B080BDA400001080B582B000AF7860EB
:101270000B4B7A681A607B681A78094B1A717B6885
:101280005A78074B5A717B689A78054B9A717B683C
:10129000DA78034BDA71C046BD4602B080BDC04665
:1012A0000C02001080B58EB000AFB9607A600F23D9
:1012B000FB18021C1A70754B5B7907221340DBB2D6
:1012C000002B00D073E00F23FB181B786F4A927934
:1012D0009B1A6E4A127911006C4A5279D208D2B226
:1012E0004A43534304337B6100237B6356E000236E
:1012F0003B634AE00023FB6241E0644B1B68796971
:101300003A6B8918614A127910007A6B42438A1845
:101310009B181B781A00FB6A1A4113000122134024
:1013200015D0BB689AB23B6B9BB2D31898B27B6B5B
:101330009BB2DB009AB27B689BB2D3189AB2FB6A6D
:101340009BB2D3189BB21900FFF714FF14E0BB68DF
:101350009AB23B6B9BB2D31898B27B6B9BB2DB000B
:101360009AB27B689BB2D3189AB2FB6A9BB2D3182D
:101370009BB21900FFF73AFFFB6A0133FB62FB6A7D
:10138000072BBADD3B6B01333B63404B1B791A00E3
:101390003B6B9A42AEDC7B6B01337B633B4B5B79EF
:1013A000DB08DBB21A007B6B9A42A0DC69E00F23FA
:1013B000FB181B78354A92799A1A344B1B7919001D
:1013C000324B5B794B43002B00DA0733DB1053437E
:1013D0000433BB622D4B1A68BB6AD3181B787B623F
:1013E00007233B620023FB6145E00023BB6139E03A
:1013F0007A6A3B6A1A411300012213400FD0BB687E
:101400009AB2FB699BB2D31898B27B689AB2BB6957
:101410009BB2D3189BB21900FFF7ACFE0EE0BB687D
:101420009AB2FB699BB2D31898B27B689AB2BB6937
:101430009BB2D3189BB21900FFF7D8FE3B6A013B61
:101440003B623B6A002B0ADA07233B62BB6A01332B
:10145000BB620E4B1A68BB6AD3181B787B62BB69F0
:101460000133BB61094B5B791A00BB699A42BFDC4F
:10147000FB690133FB61054B1B791A00FB699A423A
:10148000B3DCC046BD460EB080BDC0460C020010A5
:1014900080B586B000AFF860B9607A60FB6818006C
:1014A00001F01AF903003B61BB681B4A934207D164
:1014B0001A4B1B791A003B6953434822D31ABB606D
:1014C000BB68174A93420AD1144B1B791A003B6937
:1014D00053434822D31A00D501335B10BB6000236D
:1014E0007B6111E0FB685A1CFA6018780B4B1B7982
:1014F0001A007B695A43BB68D3187A681900FFF752
:10150000D1FE7B6901337B617A693B699A42E9DBF1
:10151000C046BD4606B080BD0F2700000C0200107B
:101520000E27000080B598B000AFF860B9607A600F
:101530003B605F23FB1800221A700023BB65002369
:101540007B65FB68002B2BD13B68002B1FD0002351
:10155000BB650AE01423FA18BB6DD3186822BA18C9
:1015600012781A70BB6D0133BB653B685A1EBB6DA8
:101570009A42EFDC1423FA18BB6DD31830221A708C
:10158000BB6D01331422BA180021D15492E0142308
:10159000FB1830221A701423FB1800225A7089E0BD
:1015A000FB68002B28DA5F23FB1801221A70FB6806
:1015B0005B42FB6020E0FB680A21180000F008FB9A
:1015C0000B00DBB23033D9B23023FA18BB6DD3181D
:1015D0000A1C1A70BB6D0133BB65FB680A21180039
:1015E00000F0F6FA0B001A00FB689B1A0A2118009B
:1015F00000F008FA0300FB60FB68002BDBDC302303
:10160000FA18BB6DD31800221A705F23FB181B78E1
:10161000002B03D01423FB182D221A705F23FB1814
:101620001A78BB6DD2183B689A421DDA00233B65DD
:1016300010E05F23FB181A783B6DD3181422BA18F8
:10164000682179180978D1547B6D01337B653B6D36
:1016500001333B653A68BB6DD21A5F23FB181B78D8
:10166000D21A3B6D9A42E4DC0023FB6413E05F2353
:10167000FB181A78FB6CD2187B6DD318B96DFA6C15
:101680008A1A013A30217918895C1422BA18D15487
:10169000FB6C0133FB64FA6CBB6D9A42E7DB5F23A2
:1016A000FB181A78BB6DD2187B6DD3181422BA18A8
:1016B0000021D1547A68B9681423FB181800FFF789
:1016C000E7FEC046BD4618B080BDC04680B590B0AC
:1016D00000AFB860F9603B60FB1D1A703F23FB1838
:1016E00000221A7000220023B868F96800F08CFA12
:1016F000031E03D03F23FB1801221A70B868F96853
:1017000000F0BCFEFB1D1A781423FB181900FFF72C
:1017100059FB4C23FB181B782E2B17D00023BB63DF
:1017200011E01423FA18BB6BD3181B782E2B07D1AA
:101730001423FA18BB6BD3184C22BA1812781A70FB
:10174000BB6B0133BB63BB6B1A2BEAD95423FB1869
:101750001B78202B40D03F23FB181B78002B23D075
:101760001423FB182D221A7001237B6318E0142325
:10177000FA187B6BD3181B78202B06D01423FA1889
:101780007B6BD3181B782D2B07D11423FA187B6B96
:10179000D3185422BA1812781A707B6B01337B630A
:1017A0007B6B1A2BE3D917E000233B6311E0142372
:1017B000FA183B6BD3181B78202B07D11423FA1887
:1017C0003B6BD3185422BA1812781A703B6B013352
:1017D0003B633B6B1A2BEAD9BA6C39681423FB18AC
:1017E0001800FFF755FEC046BD4610B080BDC0468C
:1017F00080B588B000AFF860B9607A603B600023C4
:10180000FB6150E0FB692C4A134004D5013B0822E0
:101810005242134301337B610023BB613CE0FB690F
:10182000002B00DA0733DB101A003B685A43BB6910
:10183000D3181A007B689A181323FB1812781A70B1
:101840001323FB181B7801217A6991400A00134089
:10185000002B0FDDFB689AB2BB699BB2D31898B21C
:10186000BB689AB2FB699BB2D3189BB21900FFF711
:1018700081FC0EE0FB689AB2BB699BB2D31898B2A8
:10188000BB689AB2FB699BB2D3189BB21900FFF7F1
:10189000ADFCBB690133BB61BA693B689A42BEDBF0
:1018A000FB690133FB61FA69BB6A9A42AADBC04655
:1018B000BD4608B080BDC0460700008080B592B02C
:1018C00000AFFEF76BFCFEF79BFCFEF70FFE454BEF
:1018D0001800FEF7D9FDFEF77FFC434B1800FEF71A
:1018E00025FD424B1800FEF721FD414B1800FEF785
:1018F0001DFD404B01221A60FFF7F2FA0020FFF7AE
:1019000083FBFA239B001800FEF7DAFD0120FFF7A6
:101910007BFBFA239B001800FEF7D2FD0220FFF7A5
:1019200073FBFA239B001800FEF7CAFD0320FFF7A4
:101930006BFBFA239B001800FEF7C2FD0420FFF7A3
:1019400063FB2C4B02221A602B4B1800FEF7EEFCB7
:10195000C0239B011800FEF743FD284B1800FEF73B
:10196000E5FC00237B6413E07B6CC022920194466B
:1019700063447A6CD2B219005020FFF7D9F80520E1
:10198000FEF79EFD5020FFF71BF97B6C01337B6453
:101990007B6C3F2BE8DDC0239B0119005020FFF733
:1019A00091F83B00402219005020FFF759F800231E
:1019B0003B640DE03A003B6CD3181B781800FEF72F
:1019C000D7FC0F4B1800FEF7B1FC3B6C01333B64B6
:1019D0003B6C3F2BEEDD094B1800FEF7A7FCFEF732
:1019E00005FCFEE780BB0000082F0000182F000058
:1019F000282F000000000010382F00004C2F00009E
:101A0000502F000003460B437FD4002243088B4233
:101A100074D303098B425FD3030A8B4244D3030B75
:101A20008B4228D3030C8B420DD3FF22090212BA3A
:101A3000030C8B4202D31212090265D0030B8B42B6
:101A400019D300E0090AC30B8B4201D3CB03C01AA0
:101A50005241830B8B4201D38B03C01A5241430B7B
:101A60008B4201D34B03C01A5241030B8B4201D36B
:101A70000B03C01A5241C30A8B4201D3CB02C01AD6
:101A80005241830A8B4201D38B02C01A5241430A4E
:101A90008B4201D34B02C01A5241030A8B4201D33D
:101AA0000B02C01A5241CDD2C3098B4201D3CB01E4
:101AB000C01A524183098B4201D38B01C01A524193
:101AC00043098B4201D34B01C01A524103098B4297
:101AD00001D30B01C01A5241C3088B4201D3CB0082
:101AE000C01A524183088B4201D38B00C01A524165
:101AF00043088B4201D34B00C01A5241411A00D215
:101B000001465241104670475DE0CA0F00D049427D
:101B1000031000D34042534000229C4603098B42ED
:101B20002DD3030A8B4212D3FC22890112BA030A75
:101B30008B420CD3890192118B4208D389019211F7
:101B40008B4204D389013AD0921100E08909C3097C
:101B50008B4201D3CB01C01A524183098B4201D37E
:101B60008B01C01A524143098B4201D34B01C01A69
:101B7000524103098B4201D30B01C01A5241C308E1
:101B80008B4201D3CB00C01A524183088B4201D350
:101B90008B00C01A5241D9D243088B4201D34B006B
:101BA000C01A5241411A00D20146634652415B10AD
:101BB000104601D34042002B00D54942704763468E
:101BC0005B1000D3404201B5002000F005F802BDD3
:101BD0000029F8D016E770477047C0468446101CAD
:101BE00062468C46191C634600E0C0461FB500F0F3
:101BF000DBFB002801D40021C8421FBD10B500F056
:101C00002FFB4042013010BD10B500F0CDFB002885
:101C100001DB002010BD012010BDC04610B500F052
:101C2000C3FB002801DD002010BD012010BDC0460F
:101C300010B500F055FB002801DC002010BD01208C
:101C400010BDC04610B500F04BFB002801DA0020A3
:101C500010BD012010BDC046F0B557464E46454662
:101C60004300E0B446028846760A1F0EC40F002FD8
:101C700047D0FF2F25D0002380259A469946F600AD
:101C8000ED042E437F3F434642465D02D20F5B0088
:101C90006D0A1B0E904640D0FF2B39D080220020C9
:101CA000ED00D20415437F3BFB1842465746591CB2
:101CB00062408C4607430F2F5CD86F49BF00C9595B
:101CC0008F46002E45D108239A46063B9946DAE70F
:101CD000424602282DD0032800D1C3E0012800D0BD
:101CE000A2E0002500260240D4B27602ED05760A75
:101CF0002E43E407264330001CBC90469946A2467A
:101D0000F0BD002E1AD104239A46033B9946BAE748
:101D10002A00511E8A41901CC6E70120002DC3D025
:101D2000280000F037FC431F76309D4043420020DE
:101D3000BAE70124FF2514400026D6E7300000F062
:101D400029FC431F9E400023763047429A4699461D
:101D500099E70C239A46093B994694E7802600248C
:101D6000F603FF25C1E735004846B2E735002200FB
:101D70004846AEE72904090C0800370C3604360C37
:101D80002C0C7943704367437443060C641836196E
:101D9000B14203D980214902884647440004000C1F
:101DA000310409188D01681E8541890E2943350CBF
:101DB000ED19AD010D43290104D5012369081D402A
:101DC00063460D4319007F31002925DD680704D0E3
:101DD0000F202840042800D00435280103D52749C6
:101DE00080330D401900FE29A3DC0124AD016E0AE9
:101DF0001440CDB279E78020C003064207D00542E7
:101E000005D128434602760A4446FF256DE706437E
:101E10007602760AFF2568E70124611A1B2905DD91
:101E200014400025002660E76346CBE72E00202300
:101E3000CE40591A8D406B1E9D412E43730704D02E
:101E40000F233340042B00D00436730104D5012442
:101E500001251440002648E70124B601760A144003
:101E6000002542E780260124F6032E437602760AF7
:101E70001440FF2539E7C046542F0000FFFFFFF74D
:101E8000F8B54A024E0043024400240EC50F9B09D8
:101E9000360EC90F9209FF2E00D183E00120414088
:101EA000A01BA9425CD0002800DC95E0002E1CD1CC
:101EB000002A00D081E05A0704D00F221A40042AD9
:101EC00000D004335A013BD50134FF2C00D191E0FE
:101ED00001209B015B0AE4B205405B02E4055B0A5A
:101EE000ED0723432B431800F8BDFF2CE3D08021DE
:101EF000C9040A431B2800DD90E016002021C640DB
:101F0000081A8240511E8A4132439B1A5A0115D544
:101F10009B019E09300000F03DFB0538864084425D
:101F20006CDC041B330020200134E340041BA6407A
:101F3000721E964100243343BDE70D005A07BCD101
:101F4000DF0801231D40FF2C33D1002F00D190E08A
:101F50008022D20313003B435B025B0AFF24BCE7F1
:101F600000284FDD002E2ED0FF2CA4D08025ED04BC
:101F70002A431B2800DD97E016002025C640281ABA
:101F80008240501E824132439B185A01D5D50134FC
:101F9000FF2C6DD001227B481A405B08034013439D
:101FA0000D0088E7002A00D07AE777E7031EC5D145
:101FB00000257B025B0AE4B28FE701380028A4D039
:101FC000FF2C97D177E7002A00D174E70138002869
:101FD000DAD0FF2CCDD16EE7002821D1601CC0B231
:101FE000012858DD80279E1AFF0437402FD0D61ACB
:101FF0000D008FE701231D4000236EE7624B241A7A
:10200000334058E7002851D1601CC6B2012E33DDA1
:10201000FF282DD09B185B0804004CE7012274E7D1
:10202000002C1AD0FF2E1FD08024E404404223430A
:102030001B2800DD96E01D002024C540201A8340A7
:10204000581E83412B43D31A34000D005EE7002E47
:1020500000D05FE700250024ABE7002B44D0C0434D
:102060000028F0D0FF2EE3D11300FF240D0022E75B
:102070000D00FF24002330E7002C5DD1002B7DD024
:10208000002A00D117E79B185A0100D456E73E4AB0
:10209000040013400FE7002C1ED1002B2FD1002A83
:1020A00065D013000D0006E701226DE7002C1FD15B
:1020B000002B59D0C04300280BD0FF2E4FD01B2837
:1020C0005EDC1D002024C540201A8340581E834139
:1020D0002B439B18340058E7002B1CD1002A49D011
:1020E00013000D00FF24E6E6130034000D00E2E6C5
:1020F000FF2E34D08024E40440422343DFE7002A4B
:1021000000D1D8E68027981AFF04074000D14DE798
:10211000D31A0D00CFE6FF24002A00D1CBE68020A1
:10212000DB08C003034204D0D208024201D11300ED
:102130000D00DB00FF24BEE6002B10D0FF24002A98
:1021400000D1B8E68020DB08C003034203D0D208E8
:10215000024200D11300DB000D00FF24ABE61300A8
:10216000FF24A8E601236EE713003400A3E600274E
:1021700000251EE780270025FF03E9E613009AE605
:102180000123A6E7FFFFFF7DFFFFFFFB4302590A84
:102190004300C20F1B0E00207E2B0EDD9D2B0DDC9D
:1021A000802000040143952B0BDC9620C31AD940F4
:1021B0000B005842002A00D118007047034BD0187A
:1021C000FBE7963B99400B00F3E7C046FFFFFF7F1C
:1021D00070B5002830D0C317C5185D40C40F280063
:1021E00000F0D8F99E231B1A962B0DDC9622D21AEA
:1021F00095406A02520AD8B25202C005520AE40758
:1022000002432243100070BD992B19DC9922D21A87
:102210009540124A2A40690704D00F210D40042D31
:1022200000D00432510103D50C4B1A409F231B1AD6
:102230009201520AD8B2DFE7002400200022DBE737
:1022400005222E00121AB921D6402A00C91A8A4046
:10225000551EAA4135001543DBE7C046FFFFFFFBD3
:10226000F0B55F4656464D464446F0B41F035C0049
:10227000DB0F9A46194B0E034D00C90F8046360BF3
:102280006D0D8B4691463F0B640D9D4219D0134B4B
:102290009C421BD00123A54206D018003CBC9046AE
:1022A0009946A246AB46F0BDBE42F6D1C845F4D130
:1022B000D34510D0002DF0D1304303005A1E934176
:1022C000EBE7310001230143E7D1E0E73A43012383
:1022D000002AE2D1DEE70023DFE7C046FF07000067
:1022E000F0B55F46444656464D46F0B41F033C0BDE
:1022F0002C4F0E034D00A3465C008446360B6D0D3B
:10230000C90F9046640DDB0FBD422BD0254FBC4258
:102310002ED0002D0ED130430700814678427841FF
:10232000002C17D15F463A4314D14B460020002BB6
:102330000AD006E0002C02D15846024301D099424F
:102340001AD00123484218433CBC90469946A24605
:10235000AB46F0BD0028F2D058425841012240421D
:102360001043F1E737000743D0D002204042EBE7AB
:102370005F461743CDD0F8E7A542E2DC05DB5E45BA
:10238000DFD808D000205E45DED248424841012314
:1023900040421843D8E7C445D3D80020C445F4D3FD
:1023A000D2E7C046FF070000F0B55F464D46444601
:1023B0005646F0B41C03240BA4462F4C0F034D00CB
:1023C0005E00C90F80463F0B6D0D8B469146760D22
:1023D000DB0FA54220D0284CA64222D0002D12D1DE
:1023E000384344424441002E20D0002C0DD05C42A2
:1023F000634101245B421C4320003CBC904699464B
:10240000A246AB46F0BD002E17D05B4519D05B4607
:102410005C4201231C43EFE7390002240143EBD166
:10242000D9E7614602241143E6D1D7E761460A4362
:10243000DBD100240028DFD0E9E761460A43E4D17C
:10244000E5E7B54203DD01225C421443D4E7B5421F
:10245000CDDB6745DBD809D000246745CCD259468F
:102460004C426141012449420C43C5E7C845CED8DE
:102470000024C845F3D3BFE7FF0700004B0070B549
:102480005E0D0C03751C640A420F6D052243C90FD3
:10249000C4006D0D012D2ADD3B4BF318FE2B1ADC19
:1024A000002B42DD8001451EA841D2001043620F7F
:1024B0000243500704D00F201040042800D00432FB
:1024C0008020C004104021D00133FF2B03D09201A3
:1024D000520ADBB201E0FF2300225202520ADB055E
:1024E00013435B00C9075B080B43180070BD002E47
:1024F00007D01443EFD08020D20080040243FF2392
:10250000D7E722430023002A03D00522D208FF2B5D
:1025100003D05202520ADBB2DFE7002A32D0802019
:10252000C00302435202520AD7E71800173014DBE7
:102530008020000402431E20C01A1F280FDC250043
:10254000124BF3189D406E1EB5419A402B00134369
:102550002200C2401A430023ABE70023D5E702253F
:102560006D42EB1A1500DD40202809D0084BF31806
:102570009A401443621E9441220000232A4398E7A4
:102580000022F6E70022A8E780FCFFFF82FCFFFFA5
:10259000A2FCFFFF1C2101231B04984201D3000C65
:1025A00010391B0A984201D3000A08391B099842C6
:1025B00001D30009043902A2105C40187047C046DC
:1025C00004030202010101010000000000000000FC
:1025D00070B50F2A32D90C0004430B00A40731D187
:1025E00015000400103D2D0901352D0149191E6803
:1025F00026605E6866609E68A660DE681033E660EE
:1026000010349942F3D10F2345191340032B1BD9E2
:102610001C1F0023A4080134A400CE58EE5004333C
:102620009C42FAD103232D1909191A4005D0002321
:10263000CC5CEC5401339A42FAD170BD0500002AFB
:0C264000F5D1FAE70500F2E71A00F8E710
:10264C0070B583073FD0541E002A3BD0CEB2030096
:10265C00032503E0621E002C34D0140001335A1EF3
:10266C0016702B42F6D1032C24D9FF250D402A02DB
:10267C0015432A0415430F2C11D92600103E360998
:10268C00013636011A009B19156055609560D560AE
:10269C0010329342F8D10F221440032C0AD9261F72
:1026AC00B6080136B6001A009B1920C29342FCD121
:1026BC0003221440002C05D0C9B21C191970013327
:0C26CC009C42FBD170BD14000300CCE761
:1026D80010B5830727D00378002B26D003000321E9
:1026E80002E01A78002A1CD001330B42F9D119688C
:1026F8000F4A104C8A188A4322420FD104331968B2
:102708000B4A8A188A43224208D104331968084AB6
:102718008A188A432242F1D000E001331A78002A4D
:10272800FBD1181A10BD0300E1E70020FAE7C04604
:08273800FFFEFEFE80808080A0
:1027400000CA9A3B00E1F5058096980040420F00D0
:10275000A086010010270000E803000064000000CC
:102760000A000000010000007C0700000C0A0000C5
:102770000C0A00000C0A00000C0A00000C0A000001
:102780000C0A00000C0A0000940700000C0A00006C
:102790000C0A00000C0A00000C0A00000C0A0000E1
:1027A0000C0A00000C0A0000D60700000C0A00000A
:1027B0000C0A00000C0A00000C0A00000C0A0000C1
:1027C0000C0A00000C0A0000180800000C0A0000A7
:1027D0000C0A00000C0A00000C0A00000C0A0000A1
:1027E0000C0A00000C0A00005A0800000C0A000045
:1027F0000C0A00000C0A00000C0A00000C0A000081
:102800000C0A00000C0A0000860800000C0A0000F8
:102810000C0A00000C0A00000C0A00000C0A000060
:102820000C0A00000C0A00003C0900000C0A000021
:102830000C0A00000C0A00000C0A00000C0A000040
:102840000C0A00000C0A0000540900000C0A0000E9
:102850000C0A00000C0A00000C0A00000C0A000020
:102860000C0A00000C0A0000640900000C0A0000B9
:102870000C0A00000C0A00000C0A00000C0A000000
:102880000C0A00000C0A0000860900000C0A000077
:102890000C0A00000C0A00000C0A00000C0A0000E0
:1028A0000C0A00000C0A00009E0900000C0A00003F
:1028B0000C0A00000C0A00000C0A00000C0A0000C0
:1028C0000C0A00000C0A0000E40900000608205F62
:1028D0000000000000000000002F000000000700C2
:1028E000070000147F147F1400242A7F2A1200237B
:1028F00013086462003649552250000005030000A9
:1029000000001C224100000041221C000014083E6F
:1029100008140008083E0808000000A06000000835
:102920000808080800006060000000201008040289
:10293000003E5149453E0000427F40000042615147
:102940004946002141454B31001814127F100027E1
:1029500045454539003C4A494930000171090503A4
:1029600000364949493600064949291E00003636D5
:102970000000000056360000000814224100001438
:102980001414141400004122140800020151090615
:1029900000324959513E007C1211127C007F494996
:1029A0004936003E41414122007F4141221C007FC7
:1029B00049494941007F09090901003E4149497AD5
:1029C000007F0808087F0000417F4100002040414F
:1029D0003F01007F08142241007F40404040007FBB
:1029E000020C027F007F0408107F003E4141413EFF
:1029F000007F09090906003E4151215E007F091947
:102A000029460046494949310001017F0101003F43
:102A10004040403F001F2040201F003F4038403FC3
:102A20000063140814630007087008070061514927
:102A3000454300007F414100AA55AA55AA55000010
:102A400041417F0000040201020400404040404038
:102A5000000003050000002054545478007F4844CF
:102A6000443800384444442000384444487F003807
:102A70005454541800087E0901020018A4A4A47C30
:102A8000007F080404780000447D400000408084FA
:102A90007D00007F102844000000417F4000007C42
:102AA00004180478007C080404780038444444384E
:102AB00000FC242424180018242418FC007C08049A
:102AC000040800485454542000043F444020003C73
:102AD0004040207C001C2040201C003C4030403CFA
:102AE000004428102844001CA0A0A07C004464548A
:102AF0004C440000107C8200000000FF0000000039
:102B0000827C100000000609090600000C102D0D43
:102B100000000080808080808000000000000103B1
:102B20000303030303010000000000000000000095
:102B3000000000000000000000C0C0000000000015
:102B4000000002868686868686020000000081C319
:102B5000C3C3C3C3C381000000FC7A060606060691
:102B6000067AFC00007EBCC0C0C0C0C0C0BC7E00F5
:102B700000000000000000000078FC0000000000E1
:102B800000000000003C7E000000028686868686EB
:102B9000867AFC00007EBDC3C3C3C3C3C3810000EB
:102BA0000000028686868686867AFC00000081C345
:102BB000C3C3C3C3C3BD7E0000FC78808080808017
:102BC0008078FC000000010303030303033D7E0043
:102BD00000FC7A868686868686020000000081C315
:102BE000C3C3C3C3C3BD7E0000FC7A8686868686C7
:102BF00086020000007EBDC3C3C3C3C3C3BD7E0045
:102C00000000020606060606067AFC000000000028
:102C100000000000003C7E0000FC7A8686868686E6
:102C2000867AFC00007EBDC3C3C3C3C3C3BD7E00A0
:102C300000FC7A8686868686867AFC00000081C340
:102C4000C3C3C3C3C3BD7E000E182D0D000000001A
:102C500000000000000000000000000010383838BC
:102C6000383838383810000000000000000000003C
:102C70000000000000000000000000000000000054
:102C80000000000000000000000000000000000044
:102C90000000000000000040E0E0400000000000F4
:102CA000000002060E0E0E0E0E0E060200000000C0
:102CB000103838383838383838100000000080C0F4
:102CC000E0E0E0E0E0E0C080000000FCFAF60E0E7C
:102CD0000E0E0E0EF6FAFC0000EFC7830000000097
:102CE000000083C7EF00007FBFDFE0E0E0E0E0E04E
:102CF000DFBF7F0000000000000000000000F0F8CF
:102D0000FC000000000000000000000083C7EF008E
:102D1000000000000000000000001F3F7F000000D6
:102D200002060E0E0E0E0E0EF6FAFC0000E0D0B8F3
:102D30003838383838383B170F00007FBFDFE0E005
:102D4000E0E0E0E0C0800000000002060E0E0E0E83
:102D50000E0EF6FAFC0000001038383838383838D3
:102D6000BBD7EF00000080C0E0E0E0E0E0E0DFBFC4
:102D70007F0000FCF8F0000000000000F0F8FC000C
:102D8000000F173B383838383838BBD7EF00000011
:102D900000000000000000001F3F7F0000FCFAF66A
:102DA0000E0E0E0E0E0E06020000000F173B3838F6
:102DB00038383838B8D0E000000080C0E0E0E0E00B
:102DC000E0E0DFBF7F0000FCFAF60E0E0E0E0E0EE6
:102DD0000602000000EFD7BB383838383838B8D092
:102DE000E000007FBFDFE0E0E0E0E0E0DFBF7F0089
:102DF000000002060E0E0E0E0E0EF6FAFC0000008B
:102E0000000000000000000083C7EF000000000089
:102E10000000000000001F3F7F0000FCFAF60E0ECD
:102E20000E0E0E0EF6FAFC0000EFD7BB383838381D
:102E30003838BBD7EF00007FBFDFE0E0E0E0E0E044
:102E4000DFBF7F0000FCFAF60E0E0E0E0E0EF6FA35
:102E5000FC00000F173B383838383838BBD7EF0044
:102E6000000080C0E0E0E0E0E0E0DFBF7F000000C5
:102E7000AED580A83FD300408D14200021007F22D2
:102E80000007A1C8DA1281CFD9F1DB40A4A6000067
:102E90002D2D2D436F6E6E65637465642D2D2D0091
:102EA000496E636F6D696E670000000043616C6C72
:102EB0000000000030393231383638343735000000
:102EC00030393231000000003836383437350000F0
:102ED000323700007E630000261000004010000022
:102EE0005E10000094100000BE100000FA100000F8
:102EF000FA100000FA100000FA100000FA100000AA
:102F0000FA100000F01000000A2A2A2A2A2A2A2A87
:102F10002A2A2A2A2A2A0A002A202049324320540F
:102F2000657374202A0A00002A2A2A2A2A2A2A2AB1
:102F30002A2A2A2A2A0A0000777269746520746F87
:102F400020616464726573733A2000000A00000017
:102F500020000000741D0000D21C0000D21C0000E4
:102F6000D01C0000661D0000661D00005C1D0000F6
:102F7000D01C0000661D00005C1D0000661D0000E6
:102F8000D01C00006C1D00006C1D00006C1D0000BA
:042F9000F61D00002A
:102F9400020000000000000000000000000000002B
:102FA4000000000040C08000183870E0800000007D
:102FB400000000000000F0F8F8F8F8F00000000449
:102FC4000C38F0C003073EF88000033EF8C0000050
:102FD400000000001F3F3F3F3F1F000000406038DB
:102FE4001F0780C0F83F0300C0F83E070000000040
:102FF40000000000000000000000000000000406C3
:0C300400030130381C070300000000002E
:04000003000000C039
:00000001FF
